:0400000081EF04F098
:08000800046ED8CF05F0E0CF33
:1000100006F00001E9CF0CF0EACF07F0E1CF08F0DD
:10002000E2CF09F0D9CF0AF0DACF0BF0F3CF12F01C
:10003000F4CF13F0FACF14F000C00EF001C00FF0AF
:1000400002C010F003C011F09DA02AEF00F09EB096
:10005000DEEF02F00EC000F00FC001F010C002F0A1
:1000600011C003F00CC0E9FF07C0EAFF078E08C00B
:10007000E1FF09C0E2FF0AC0D9FF0BC0DAFF12C0DE
:10008000F3FF13C0F4FF14C0FAFF045006C0E0FFF2
:1000900005C0D8FF10008E0E006E2EC001F02DC0DE
:1000A00002F0036A015209E102C001F0026A080E7F
:1000B000005E015202E1006A08D0D89001BE04D06F
:1000C000023601360006F9D7019E12002D50D8B431
:1000D000A5D0396E3150D8B4A1D0395E05E37F0E7A
:1000E0003926D8B09BD006D0810E395ED8A096D0E4
:1000F000D8B494D039C000F0016A026A036A386A41
:100100002EC037F0378E2FC036F030C035F0190EC4
:10011000396E3450355E0DE2010E365E0AE2375E0E
:1001200008E2385E06E2382A372A362A3450352665
:1001300028D03350365E12E2010E375E0FE2385E91
:100140000DE2382A372A335036263450352619E343
:10015000362A17E1372A15E1382A13D032508009A0
:10016000375E0EE2010E385E0BE2382A325080090B
:10017000372633503626E9E3372AE7E1382AE5D730
:100180000380392E01D00BD0D8903536363637362D
:100190003836D8900336023601363A36BAD73AA006
:1001A00006D0D8900132023203323A3202D0000631
:1001B00035E03ABE1ED0D89035363636373638362A
:1001C0003450355E07E2010E365E04E2375E02E22D
:1001D000385E1AE33350365E05E2010E375E02E206
:1001E000385E12E332508009375E03E2010E385E5A
:1001F0000BE3032A09E1022A07E1012A05E1002AAB
:100200000DE00132023203322EC039F03250391A79
:1002100039AE02D0018E06D0019E04D0006A016A78
:10022000026A036A25EF03F03150D8B471D0006E32
:100230003550D8B46DD0002604E3810E002668E264
:1002400004D07F0E005E64E363E032C039F03650C4
:10025000391A328E368E34503802F4CF3BF0335098
:100260003702F4CF03F0F3CF3AF03802F3503B26D5
:10027000F4503A22000E032234503702F3503B264A
:10028000F4503A22000E026A03220222325038024F
:10029000F3503A26F4500322000E02223250370265
:1002A000F3500326F4500222000E016A012234505A
:1002B0003602F3503A26F4500322000E02220122A5
:1002C00033503602F3500326F4500222000E01226E
:1002D00032503602F3500226F4500122002A01BEA9
:1002E00005D03A360336023601360006000E3AAE25
:1002F0000AD0032A02220122015005E1025003E143
:10030000035001E1002A39BE018E39AE019E04D0AE
:10031000006A016A026A036A12008E0E006E2D5096
:10032000005E2EC002F02FC001F0028E005209E0E4
:10033000D890025202E1015204E002320132002E52
:10034000F7D72EAE05D0011E021E012AD8B4022A0C
:100350001200800ED8B2321A376A386A2EC036F0D0
:100360003250361A2D50D8B4DCD0356E006E315074
:10037000D8B4E0D0355ED8B481D03DE332C03BF094
:100380003B8E33C03AF034C039F0386AD8903B32F3
:100390003A3239323832352EF8D736AE03D037807C
:1003A000DDD0379035903788EA6A300EE96EE9D0B3
:1003B000379836BE0AD035A013D03B323A323932A4
:1003C0003832002AD8B4C5D00BD03BBE0CD0D89060
:1003D000383639363A363B360006D8B4BAD0F5D777
:1003E000378C6BD0379C2EC036F02EAE02D03B8EB1
:1003F000A9D03B9EA7D031C035F031C000F02D50C0
:10040000355E2EC03BF03B8E2FC03AF030C039F045
:10041000386AD8903B323A3239323832352EF8D7F2
:1004200036AE03D037829AD037923590378AEA6A4F
:10043000340EE96EA6D0379A36BE0AD035A013D056
:100440003B323A3239323832002AD8B482D00BD01B
:100450003BBE0CD0D890383639363A363B3600069B
:10046000D8B477D0F5D7378E28D0379E32C036F043
:1004700032AE02D03B8E66D03B9E64D032C03BF0A1
:100480003B8E33C03AF034C039F036AE04D03B9ED8
:10049000378464D03794386A3590EA6A300EE96E52
:1004A00070D036BE1CD02EC036F035A006D03B3200
:1004B0003A3239323832002A4CE038AE0BD0392A81
:1004C00009E13A2A07E13B2A05E13B323A32393267
:1004D000002A3FE037BC86D737BEC7D71CD0800E76
:1004E0003B1A3BAE04D03AD032C036F00AD02EC010
:1004F00036F03B5206E13A5204E1395202E1006A19
:1005000021D03BBE08D0D890383639363A363B3603
:10051000002EF7D71ED036AE02D03B8E13D03B9EB6
:1005200011D031C000F032C03BF033C03AF034C0DB
:1005300039F008D02DC000F02EC03BF02FC03AF0AB
:1005400030C039F03BC001F03AC002F039C003F0CE
:1005500034D0006A016A026A036A2FD0386A391EF1
:100560003A1E3B1E381E382A05E1392A03E13A2A91
:1005700001E13B2A37B015D737B256D737B48AD7FF
:10058000B3D7EF50392605E33A2A03E13B2AD8B422
:100590003580ED52EF503A2603E33B2AD8B435803C
:1005A000ED52EF50EFBE01D0800A3B26D8B0358027
:1005B00037B8FED637BA3FD774D71200CE50CFCF58
:1005C00003F02C0F2D6ECF0ECF20CF6E2DC0CEFF9F
:1005D0003F0E236E060E246E5B0E256E4F0E266EAA
:1005E000660E276E6D0E286E7D0E296E070E2A6E22
:1005F0007F0E2B6E6F0E2C6E1A5217E1C282C2B2A2
:10060000FED7C4CF03F0C3CF2DF0C4CF2EF043DD0F
:1006100003C01EF002C01DF001C01CF000C01BF0A2
:10062000A60E006E002EFED700001EC030F01DC0CA
:100630002FF01CC02EF01BC02DF0346AC00E336E9C
:100640007F0E326E880E316E41D503C030F002C08D
:100650002FF001C02EF000C02DF003C034F002C016
:1006600033F001C032F000C031F0386A376A200E32
:10067000366E810E356ED8DD03C022F002C021F047
:1006800001C020F000C01FF022C030F021C02FF0C8
:1006900020C02EF01FC02DF040DE01C016F02E6AE3
:1006A00016C02DF0F8DCD88222C030F021C02FF027
:1006B00020C02EF01FC02DF003C034F002C033F074
:1006C00001C032F000C031F044DE03C030F002C09F
:1006D0002FF001C02EF000C02DF003C034F002C096
:1006E00033F001C032F000C031F0386A376A200EB2
:1006F000366E820E356E98DD03C022F002C021F006
:1007000001C020F000C01FF022C030F021C02FF047
:1007100020C02EF01FC02DF000DE01C017F02E6AA1
:1007200017C02DF0B8DCD88222C030F021C02FF0E5
:1007300020C02EF01FC02DF003C034F002C033F0F3
:1007400001C032F000C031F004DE03C030F002C05E
:100750002FF001C02EF000C02DF003C034F002C015
:1007600033F001C032F000C031F0386A376A200E31
:10077000366E820E356E58DD03C022F002C021F0C5
:1007800001C020F000C01FF022C030F021C02FF0C7
:1007900020C02EF01FC02DF0C0DD01C018F02E6A61
:1007A00018C02DF078DCD88222C030F021C02FF0A4
:1007B00020C02EF01FC02DF003C034F002C033F073
:1007C00001C032F000C031F0C4DD03C030F002C01F
:1007D0002FF001C02EF000C02DF003C034F002C095
:1007E00033F001C032F000C031F0386A376A200EB1
:1007F000366E820E356E18DD03C022F002C021F085
:1008000001C020F000C01FF022C030F021C02FF046
:1008100020C02EF01FC02DF080DD01C019F01A504D
:10082000FC0F56E2040F70EF04F0036A1650230F1A
:10083000E96E000E0320EA6EEFCF2DF0956A2DC011
:100840008CFF899A929A899892988996929689842F
:1008500092943ED0036A1750230FE96E000E0320D6
:10086000EA6EEFCF2DF0956A2DC08CFF899A929A8F
:1008700089989298898692968994929429D0036A4D
:100880001850230FE96E000E0320EA6EEFCF2DF013
:10089000956A2DC08CFF899A929A89889298899638
:1008A00092968994929414D0036A1950230FE96E9A
:1008B000000E0320EA6EEFCF2DF0956A2DC08CFF5D
:1008C000898A929A89989298899692968994929414
:1008D0001A2A1A50040801E11A6A9E902AEF00F0C1
:1008E000E824F76AF736FB0FF66E080EF7220A00C7
:1008F000F550FA6E0800F550F96E2A0854087E0883
:10090000A808F86AD09E078E1A6A1E6A1D6A1C6AB9
:100910001B6A226A216A206A1F6AC150C00B0F0934
:10092000C16E070EB46E166A176A186A196A956A5C
:100930008C6A000E956EB50ECD6ECF0ECF6E2C0E5E
:10094000CE6EC00EF2129D80C150C00B0E09C16E5A
:10095000C050C00B0709C06EC08EC280000E016E71
:0C096000C250C30B0110C26EFFD7030091
:020000040030CA
:0E00000024CC3E1E0087A1000FC00FE00F4071
:00000001FF
;PIC18F4550
;CRC=A332  CREATED="06-ago-21 18:53"
